:03000000020731C3
:0C073100787FE4F6D8FD7581320207786D
:0F0ADA006D410052005345543A004E4F573A00B9
:03000300011D00DC
:1005EC00E4F52AF52B120A44120AB3120B16120B5D
:1005FC001F7BFF7A0A79DA7D097F01120A037B5689
:10060C007D107F01120B0C7BF47D107F02120B0C02
:10061C007BFF7A0A79DD7D0C7F02120A037BFF7A5D
:10062C000A79DF7D017F01120A037BFF7A0A79E4E4
:10063C007D017F02120A037BFF7A0A79DA7D097F3A
:10064C0002120A0320B2507F1E7E00120A72052B82
:10065C00E52B7002052AD394D0E52A94074005E4D3
:10066C00F52AF52B7529017F2C7E01802520B227D8
:10067C007402252BF52BE4352AF52AD3E52B94D0DF
:10068C00E52A94074005E4F52AF52B7529017F141A
:10069C007E00120A7280D620B3557F1E7E00120A8D
:1006AC0072E52B152B7002152AD3E52B94D0E52A75
:1006BC0094074006752A07752BD07529017F2C7E6F
:1006CC0001802720B32974FE252BF52B74FF352AC6
:1006DC00F52AD3E52B94D0E52A94074006752A0712
:1006EC00752BD07529017F147E00120A7280D420DC
:1006FC00B4157F147E00120A72E4F52AF52B7529C5
:10070C00017F14FE120A7230B502C1507F147E00B4
:10071C00120A72752A03752BE87529017F147E0065
:05072C00120A72C15029
:03000B0002048666
:10048600C0E0C0F0C083C08263A201C083C082C046
:10049600D075D000C000C001C002C003C004C005B2
:0404A600C006C007C5
:1004AA00C28C758AF0758CD8D28C051DE529601F1F
:1004BA00AF2BAE2A120A88752900AF2DAE2C12096D
:1004CA0032751804AB2BAA2A7D057F011207BDE5F8
:1004DA001D64326002A1CA120A9E8F228E218D20CB
:1004EA008C1FE4FFFE7DC87C43AB22AA21A920A869
:1004FA001F1201061203638E278F28AB22AA21A995
:10050A0020A81FAF31AE30AD2FAC2E1200118F26AE
:10051A008E258D248C23E4FFFEFDFCAB26AA25A99B
:10052A0024A8231202AC600C400A052DE52D7002A6
:10053A00052C8008E52D152D7002152CAF2DAE2C3B
:10054A001209321208008F1EAC1EE412032F7B0917
:10055A007AF97920783D1201068F118E108D0F8C51
:10056A000E7D0C7C007F0112086CAC1EE412032F76
:10057A007B337A33791D7842120106C004C005C064
:10058A0006C007AC2AAD2BE412032AA804A905AABF
:10059A0006AB07D007D006D005D00412020F12030B
:1005AA0063AB07AA067518037D0D7F021207BD7596
:1005BA001804AB28AA277D057F021207BD751D0006
:1005CA00D007D006D005D004D003D002D001D00085
:1005DA00D0D0D082D08363A201D082D083D0F0D091
:0205EA00E032FD
:100AC700EF1FAA0670011E4A60087D021DED60F047
:020AD70080FAA3
:010AD90022FA
:100A7200EF1FAC0670011E4C600B007D027CC7DCD0
:050A8200FEDDFC80EB2D
:010A8700224C
:060AE900C2A58F80D2A718
:080AEF007F027EEFDEFEDFFC5A
:010AF70022DC
:0A0AF800C2A6120AE9C2A7020AEF23
:0A0B0200D2A6120AE9C2A7020AEF08
:100A2600AE07EEFB7A0064017004ED148009EB64F6
:0E0A3600024A7009ED243F4480FF120AF822A4
:100AB3007F38120AF87F0C120AF87F06120AF87FB1
:040AC30001020AF82A
:0A0B0C00AC03120A26AF04020B022C
:060A03008B088A09890A34
:100A0900120A26E4FDAB08AA09A90A8D827583009A
:0C0A19001203E4FF6006120B020D80E9DE
:010A250022AE
:0809DC008E198F1A8C1B8D1C73
:1009E4007F017E00E4FBEBC3951CE51B6480F87477
:0E09F4008098500AAC19AD1A1204110B80E85D
:010A020022D1
:0407BD008A168B17F6
:1007C100120A26AA18EAFF7E00D39400748094804E
:1007D100402BEF24FFFDEE34FFFC7F0A1209DCAC55
:1007E10016AD17CFCDCFCECCCE1204237C007D0A1F
:0D07F100120423ED2430FF120B021A80C801
:0107FE0022D8
:06086C008F0B8C0C8D0DBA
:10087200E4FFFE7DC87C42AB11AA10A90FA80E129C
:1008820001061203638E128F13AD0DC005AF11AEB8
:1008920010AD0FAC0E120363AB07AA06751801D098
:1008A20005AF0B1207BDE50D04FD7B2EAF0B120B3E
:1008B2000CE50D2402FDC005AE12AF137C007D6471
:1008C200120423AA04AB05751802D005AF0B020768
:0108D200BD68
:10098200E4FFFE7D0CD291C290C2913092FDD290D2
:10099200C290AC051DEC6015D290EF25E0FFEE335E
:0F09A200FE3092050FBF00010EC29080E5D2918A
:0109B1002223
:100A9E00120982AD07AC06E412032AE4FBFA794C84
:050AAE00784402020F74
:04093200AB07AA065F
:10093600C3EA941040047A107B00430270D2A3C22B
:10094600A1C2A07D0FED3395E0C36480948040245E
:100956007E007401A805088005C333CE33CED8F9CE
:10096600FFEE5AFEEF5B4E24FF92A2C2A100D2A177
:0B097600001D80D100D2A0C2A3D2A3BC
:010981002253
:1009B2008F0E8E0D8D0C8C0B8F318E308D2F8C2ED9
:1009C200E4FFFE7D4F7C44AB0EAA0DA90CA80B12CE
:0A09D20001061203638E2C8F2D2204
:100A8800AD07AC06E412032A7B0A7AD77923783BB0
:060A98001201060209B282
:100A44005389F0438901758AF0758CD8C28DD2A977
:070A5400D2AFD2B9D28C220F
:100A5B005389F0438901758B66758DFCC28FD2ABC0
:070A6B00D2AFD2BBD28E22F4
:03000600013200C4
:090B1600D2B2D2B3D2B4D2B4229F
:1008D30020B2147F147E00120A7230B2FD7F147EA0
:1008E30000120A7275320120B3147F147E00120ABB
:1008F3007230B3FD7F147E00120A7275320220B487
:10090300147F147E00120A7230B4FD7F147E00122D
:100913000A7275320320B5147F147E00120A7230F6
:0E092300B5FD7F147E00120A72753204AF32E9
:0109310022A3
:070B1F00D293C294C296229A
:10080000E4FFFEC293D296D294C294D296D294C2FE
:1008100094C296D294C294D296D295FDEDC3940818
:10082000748094805017D294C29430950DA80574AA
:1008300080088002C313D8FC42070D80DFE4FDED81
:10084000C3940874809480501730950DA8057401E6
:10085000088002C333D8FC4206D294C2940D80DFD4
:0B086000D295D293EFB50601227F0075
:01086B00226A
:10000E000203CFE86480F8E933E83360110460F04E
:10001E00ED33EC337009E8FCE9FDEAFEEBFF220458
:10002E0060DED3EB9FEA9EE99DE8C2E78CF0C2F753
:10003E0095F0400CE8CCF8E9CDF9EACEFAEBCFFB1F
:10004E0012039A85D0F05804700320D5B3E80470DB
:10005E00075002B2D50203D992D5EC0460F7E4CC76
:10006E00C0E0C398F8603B94186008400DD0E0FBE8
:10007E000203B1E4FBFAC9FC8028E830E406E4C9C7
:10008E00FBE4CAFCE830E305E4C9CACBFCE854073C
:10009E006010F8C3E913F9EA13FAEB13FBEC13FC47
:1000AE00D8F130F52FC3E49CFCEF9BFFEE9AFEEDEA
:1000BE0099FDD0E0FBEF4E4D4C701222DB03020394
:1000CE00D6EC2CFCEF33FFEE33FEED33FDED30E7D7
:1000DE00EB0203B1EF2BFFEE3AFEED39FDD0E0FB64
:1000EE0050130BBB00030203D9ED13FDEE13FEEF0D
:0800FE0013FFEC13FC0203B137
:10010600EC4D6011E8497017ED33EC3304600DE4F3
:10011600FCFFFEFD22E933E8330470F80203CF1238
:10012600039A58046009E4CC248150062850090239
:1001360003D92840030203D6C0E0EB4A7044B980D5
:1001460006D0E0FB0203C5EF4E701CBD8008EBFF36
:10015600EAFEE9FD80EBE98DF0A4FEE5F00201EF91
:10016600E9CDF9EAFEEBFFEF89F0A4FCE5F0CE89D4
:10017600F0A42EFFE435F0CD89F0A42DFEE435F091
:100186008067EF4E7005BD80D780C3EF8BF0A4ACBF
:10019600F0EE8BF0A42CFCE435F0F8EF8AF0A42CFA
:1001A600E5F038FCE433CB8DF0A42CFCE5F03BF80D
:1001B600EE8AF0A42CFCE5F038F8E433CF89F0A4FD
:1001C6002CFCE5F038CF3400CE89F0A42FFFE5F003
:1001D6003EFEE433C98DF0A42EFEE5F039CD8AF05B
:1001E600A42FFFE5F03EFEE43DFD33D0E0FB5007D3
:1001F6000BBB000F0203D9EC2CFCEF33FFEE33FEF2
:06020600ED33FD0203B11F
:10020C000203D9EC5D046005E8590470030203CFC6
:10021C0012039A580460F6EC4860F2EC7004FDFE90
:10022C00FF22C860DB2481C85009C39860025006C5
:10023C000203D69850CAF582E9294B4A7005AB8265
:10024C000203C575F0007C1A7880C3EF9BEE9AED23
:10025C0099400DC3EF9BFFEE9AFEED99FDE842F03D
:10026C00DC23ACF0D0E0FFD0E0FED0E0FDAB822090
:10027C00E7101BEB60BAEC2CFCEF33FFEE33FEED1A
:10028C0033FD0203B1E803F830E705C0F075F00068
:10029C00EF2FFFEE33FEED33FD40B830E7C280AAFE
:1002AC0074F8CC6480CCC86480C8F58204604FC3F9
:1002BC00EB9FF5F0EA9E42F0E99D42F0E89C45F098
:1002CC00603C501DE5825FFFE582D313CB5BCBF422
:1002DC002B5582FB50280ABA002409B9002008804B
:1002EC001DE5825BFBE582D313CF5FCFF4C3132FE5
:1002FC005582FF50090EBE00050DBD00010CC3EB6D
:10030C009FF5F0EA9E42F0E99D42F0E89C45F060D2
:09031C0007CC4820E701B3EC22F4
:1003250075F020800E75F010800575F0087D007E53
:10033500007F003392D530D503120478EC3340109A
:10034500EF33FFEE33FEED33FDEC33FCD5F0ED225C
:0E035500E5F0247EA2D513CC92E7CDCEFF2298
:10036300EDD2E7CD33EC3392D524814006E4FFFE92
:10037300FDFC22FCE4CFCECDCC24E0501174FF80F1
:10038300EDC3CC13CCCD13CDCE13CECF13CF04708E
:07039300F030D5DE02047812
:10039A00E9D2E7C933E833F892D5EDD2E7CD33ECA9
:0703AA0033FC5002B2D52222
:1003B100EC30E7100FBF000C0EBE00080DBD0004AD
:1003C1000BEB6014A2D5EB13FCED92E7FD2274FF59
:1003D100FCFDFEFF22E480F8A2D574FF13FC7D80B2
:0303E100E480EFC6
:10073D000205ECE493A3F8E493A34003F68001F2E1
:10074D0008DFF48029E493A3F85407240CC8C333BD
:10075D00C4540F4420C8834004F456800146F6DF8C
:10076D00E4800B0102040810204080900003E47E19
:10077D00019360BCA3FF543F30E509541FFEE49381
:10078D00A360010ECF54C025E060A840B8E493A348
:10079D00FAE493A3F8E493A3C8C582C8CAC583CA73
:1007AD00F0A3C8C582C8CAC583CADFE9DEE780BE2B
:0100090000F6
:1003E400BB010CE58229F582E5833AF583E02250CE
:1003F40006E92582F8E622BBFE06E92582F8E22218
:0D040400E58229F582E5833AF583E4932231
:10041100EF8DF0A4A8F0CF8CF0A428CE8DF0A42EFF
:02042100FE22B9
:10042300BC000BBE0029EF8DF084FFADF022E4CCBD
:10043300F875F008EF2FFFEE33FEEC33FCEE9DEC86
:10044300984005FCEE9DFE0FD5F0E9E4CEFD22EDCC
:10045300F8F5F0EE8420D21CFEADF075F008EF2F16
:10046300FFED33FD4007985006D5F0F222C398FD07
:050473000FD5F0EA22A4
:0E047800C3E49FFFE49EFEE49DFDE49CFC2295
:00000001FF
